:0400000080314628DD
:100008007E14803100308600003087000B1F0D28D9
:100018000E2844284E011D1E122813281B28131EC3
:10002800162817281B288231E22280314428191EFD
:100038001E281F282A280F1E222823282A28400184
:1000480066088A0065080A0080314428991E2D2810
:100058002E2839288F1E3128322839284001640873
:100068008A0063080A00803144281A1C3C283D286D
:100078004428101C4028412844288231802280319D
:100088007E100900803148288231ED228031FB0042
:10009800703084000030850008308231B022803111
:1000A80040308400003085001B308231B02280311E
:1000B800A0308400003085001F308231B0228031AA
:1000C8007E1040018231A02A400120088600870165
:1000D8002108C03F2208C13F2308C23F2408C33F6C
:1000E8002008043E860087012508C03F2608C13F36
:1000F8002708C23F2808C33F2008083E860087011A
:100108002908C03F2A08C13F2B08C23F2C08C33F1B
:1001180020080C3E860087012D08C03F2E08C13FED
:100128002F08C23F3008C33F2008103E86008701D1
:10013800310881002008113E8600870132088100BD
:100148002008123E86008701330881002008133EEC
:10015800860087013408C03F3508C13F3608C23FD2
:100168003708C33F2008173E860087013808C03F7C
:100178003908C13F3A08C23F3B08C33F20081B3E2D
:10018800860087013C08C03F3D08C13F3E08C23F8A
:100198003F08C33F080082318D2280318131C3215D
:1001A800803182319722803182315E2280318131E3
:1001B800E42180318131232180317B304001A0004E
:1001C8000030A4000030A3000030A2000030A100DD
:1001D8000030A8000030A7000030A6000030A500BD
:1001E8000030AC000030AB000030AA000030A9009D
:1001F8000030B0000030AF000330AE00EF30AD008B
:10020800B101B201B3010030B7000030B6000030D0
:10021800B500C830B4000030BB000030BA00003070
:10022800B9000630B8000030BF000030BE00003012
:10023800BD000430BC0080316820803108004E01C8
:10024800991266304001A0000130A1008231C2221B
:1002580081314E01191202304001A0000230A10084
:100268008231BC228131083042019F0090309D00CC
:1002780024309E0040309B0003309C00EE3040014B
:10028800A0000230A1008231CE228131DA30400153
:10029800A0000230A1008231C8228131DE30400145
:1002A800A0000230A1008231D42281314001DA015C
:1002B800F701F6010830F500F401F301F2014E01EF
:1002C800991608007408403E8600870181014201A2
:1002D8001D1D6F2970297B297408403E86008701FF
:1002E8008114400160088A005F080A0081314201D8
:1002F8009D1C7F2980298B297408403E8600870130
:10030800011540015E088A005D080A008131740801
:10031800403E8600870101080319932994299B29E7
:1003280040015C088A005B080A0081319E298231FD
:100338004B2281310800F80075080319A429A52962
:10034800A0294E01191AA929AA29AE29780842011B
:100358009A00C02919127708503E8600870178084C
:1003680081000130F70708307702031CBC29BD293A
:10037800BE29F7010130F5024E01191608004001A7
:1003880098019A013F3092002C3094001B307E0176
:10039800CE003730B800B9010430CF00BA01D0011F
:1003A8003730BB003F30D1003F30BC003F30D20077
:1003B8001830A0000F30A40015307D01CB000800D4
:1003C80044018F01900104309100FE308D007C3093
:1003D8008C004E01101044010D08F1000C08F000CB
:1003E8004E011A1400304001A0000030A1008231F3
:1003F800B6228131313044018E0008000830750280
:100408000318072A082A1B2A7608503E8600870107
:10041800010842019A000130F60708307602031CF1
:10042800162A172A182AF6010130F5071D2A4E0147
:10043800191208008231A8228231003A0319252AAC
:10044800262A1E2A790881319F2182318231A822E9
:100458008231003A0319312A322A2A2A7A0881314C
:100468009F2182310800E830F9000330FA00823118
:100478001E228231031040011A1C03140318452A56
:10048800482A40011A144A2A40011A100800740820
:10049800483E860087014201190881000130F407AF
:1004A80008307402031C592A5A2A5B2AF4010130C5
:1004B800F207080001304B019200E03093008E01F2
:1004C8008D018C019101900121308F0092134E0112
:1004D80013121D16080044010E1D732A742A7B2A64
:1004E8000E1079088D0078088C000E147F2A790880
:1004F8008D0078088C0008004E0110107108F90072
:100508007008F80082316F228231823137228231BD
:1005180008004F0196019701980199019A019B01E2
:100528009C019D010800603051018D008F019101EF
:1005380006309300920108008031CF2082318B175A
:100548000B17A52A803146287508031DAC2AAE2A48
:100558000130AF2A00300800640080010131890BA6
:10056800B12A003440012108E2002008E100080017
:1005780040012108E6002008E500080040012108A4
:10058800E4002008E300080040012108DE002008FC
:10059800DD00080040012108E0002008DF00080015
:1005A80040012108DC002008DB00080042011D1280
:1005B8001D16080082314B22823108004E011312A9
:1005C8000800463400344D34003452340034533477
:0605D8000034A03408000D
:020000040001F9
:0A000E00EC3FFF3F9F3FFF3FFF3F25
:00000001FF
